Component: ARM Compiler 5.06 update 6 (build 750) Tool: armlink [4d35ed]

==============================================================================

Section Cross References

    startup_stm32l431xx.o(RESET) refers to startup_stm32l431xx.o(STACK) for __initial_sp
    startup_stm32l431xx.o(RESET) refers to startup_stm32l431xx.o(.text) for Reset_Handler
    startup_stm32l431xx.o(RESET) refers to stm32l4xx_it.o(i.NMI_Handler) for NMI_Handler
    startup_stm32l431xx.o(RESET) refers to stm32l4xx_it.o(i.HardFault_Handler) for HardFault_Handler
    startup_stm32l431xx.o(RESET) refers to stm32l4xx_it.o(i.MemManage_Handler) for MemManage_Handler
    startup_stm32l431xx.o(RESET) refers to stm32l4xx_it.o(i.BusFault_Handler) for BusFault_Handler
    startup_stm32l431xx.o(RESET) refers to stm32l4xx_it.o(i.UsageFault_Handler) for UsageFault_Handler
    startup_stm32l431xx.o(RESET) refers to stm32l4xx_it.o(i.SVC_Handler) for SVC_Handler
    startup_stm32l431xx.o(RESET) refers to stm32l4xx_it.o(i.DebugMon_Handler) for DebugMon_Handler
    startup_stm32l431xx.o(RESET) refers to stm32l4xx_it.o(i.PendSV_Handler) for PendSV_Handler
    startup_stm32l431xx.o(RESET) refers to stm32l4xx_it.o(i.SysTick_Handler) for SysTick_Handler
    startup_stm32l431xx.o(.text) refers to system_stm32l4xx.o(i.SystemInit) for SystemInit
    startup_stm32l431xx.o(.text) refers to entry.o(.ARM.Collect$$$$00000000) for __main
    main.o(i.SystemClock_Config) refers to memseta.o(.text) for __aeabi_memclr4
    main.o(i.SystemClock_Config) refers to stm32l4xx_hal_rcc.o(i.HAL_RCC_OscConfig) for HAL_RCC_OscConfig
    main.o(i.SystemClock_Config) refers to stm32l4xx_hal_rcc.o(i.HAL_RCC_ClockConfig) for HAL_RCC_ClockConfig
    main.o(i.SystemClock_Config) refers to stm32l4xx_hal_rcc_ex.o(i.HAL_RCCEx_PeriphCLKConfig) for HAL_RCCEx_PeriphCLKConfig
    main.o(i.SystemClock_Config) refers to stm32l4xx_hal_pwr_ex.o(i.HAL_PWREx_ControlVoltageScaling) for HAL_PWREx_ControlVoltageScaling
==============================================================================

Removing Unused input sections from the image.

    Removing startup_stm32l431xx.o(HEAP), (1024 bytes).
    Removing main.o(.rev16_text), (4 bytes).
    Removing main.o(.revsh_text), (4 bytes).
    Removing main.o(.rrx_text), (6 bytes).
    Removing gpio.o(.rev16_text), (4 bytes).
    Removing gpio.o(.revsh_text), (4 bytes).
    Removing gpio.o(.rrx_text), (6 bytes).
    Removing quadspi.o(.rev16_text), (4 bytes).
    Removing quadspi.o(.revsh_text), (4 bytes).
    Removing quadspi.o(.rrx_text), (6 bytes).
    Removing quadspi.o(i.HAL_QSPI_MspDeInit), (44 bytes).
    Removing spi.o(.rev16_text), (4 bytes).
    Removing spi.o(.revsh_text), (4 bytes).
    Removing spi.o(.rrx_text), (6 bytes).
    Removing spi.o(i.HAL_SPI_MspDeInit), (60 bytes).
    Removing usart.o(.rev16_text), (4 bytes).
    Removing usart.o(.revsh_text), (4 bytes).
    Removing usart.o(.rrx_text), (6 bytes).
==============================================================================

Image Symbol Table

    Local Symbols

    Symbol Name                              Value     Ov Type        Size  Object(Section)

    ../Core/Src/gpio.c                       0x00000000   Number         0  gpio.o ABSOLUTE
    ../Core/Src/main.c                       0x00000000   Number         0  main.o ABSOLUTE
    ../Core/Src/quadspi.c                    0x00000000   Number         0  quadspi.o ABSOLUTE
    ../Core/Src/spi.c                        0x00000000   Number         0  spi.o ABSOLUTE
    ../Core/Src/stm32l4xx_hal_msp.c          0x00000000   Number         0  stm32l4xx_hal_msp.o ABSOLUTE
    ../Core/Src/stm32l4xx_it.c               0x00000000   Number         0  stm32l4xx_it.o ABSOLUTE
    ../Core/Src/system_stm32l4xx.c           0x00000000   Number         0  system_stm32l4xx.o ABSOLUTE
    ../Core/Src/usart.c                      0x00000000   Number         0  usart.o ABSOLUTE
    ../Drivers/STM32L4xx_HAL_Driver/Src/stm32l4xx_hal.c 0x00000000   Number         0  stm32l4xx_hal.o ABSOLUTE
    ../Drivers/STM32L4xx_HAL_Driver/Src/stm32l4xx_hal_cortex.c 0x00000000   Number         0  stm32l4xx_hal_cortex.o ABSOLUTE
    ../Drivers/STM32L4xx_HAL_Driver/Src/stm32l4xx_hal_dma.c 0x00000000   Number         0  stm32l4xx_hal_dma.o ABSOLUTE
    ../Drivers/STM32L4xx_HAL_Driver/Src/stm32l4xx_hal_dma_ex.c 0x00000000   Number         0  stm32l4xx_hal_dma_ex.o ABSOLUTE
    ../Drivers/STM32L4xx_HAL_Driver/Src/stm32l4xx_hal_exti.c 0x00000000   Number         0  stm32l4xx_hal_exti.o ABSOLUTE
    ../Drivers/STM32L4xx_HAL_Driver/Src/stm32l4xx_hal_flash.c 0x00000000   Number         0  stm32l4xx_hal_flash.o ABSOLUTE
    ../Drivers/STM32L4xx_HAL_Driver/Src/stm32l4xx_hal_flash_ex.c 0x00000000   Number         0  stm32l4xx_hal_flash_ex.o ABSOLUTE
    ../Drivers/STM32L4xx_HAL_Driver/Src/stm32l4xx_hal_flash_ramfunc.c 0x00000000   Number         0  stm32l4xx_hal_flash_ramfunc.o ABSOLUTE
    ../Drivers/STM32L4xx_HAL_Driver/Src/stm32l4xx_hal_gpio.c 0x00000000   Number         0  stm32l4xx_hal_gpio.o ABSOLUTE
    ../Drivers/STM32L4xx_HAL_Driver/Src/stm32l4xx_hal_i2c.c 0x00000000   Number         0  stm32l4xx_hal_i2c.o ABSOLUTE
    ../Drivers/STM32L4xx_HAL_Driver/Src/stm32l4xx_hal_i2c_ex.c 0x00000000   Number         0  stm32l4xx_hal_i2c_ex.o ABSOLUTE
    ../Drivers/STM32L4xx_HAL_Driver/Src/stm32l4xx_hal_pwr.c 0x00000000   Number         0  stm32l4xx_hal_pwr.o ABSOLUTE
    ../Drivers/STM32L4xx_HAL_Driver/Src/stm32l4xx_hal_pwr_ex.c 0x00000000   Number         0  stm32l4xx_hal_pwr_ex.o ABSOLUTE
    ../Drivers/STM32L4xx_HAL_Driver/Src/stm32l4xx_hal_qspi.c 0x00000000   Number         0  stm32l4xx_hal_qspi.o ABSOLUTE
    ../Drivers/STM32L4xx_HAL_Driver/Src/stm32l4xx_hal_rcc.c 0x00000000   Number         0  stm32l4xx_hal_rcc.o ABSOLUTE
    ../Drivers/STM32L4xx_HAL_Driver/Src/stm32l4xx_hal_rcc_ex.c 0x00000000   Number         0  stm32l4xx_hal_rcc_ex.o ABSOLUTE
    ../Drivers/STM32L4xx_HAL_Driver/Src/stm32l4xx_hal_spi.c 0x00000000   Number         0  stm32l4xx_hal_spi.o ABSOLUTE
    ../Drivers/STM32L4xx_HAL_Driver/Src/stm32l4xx_hal_spi_ex.c 0x00000000   Number         0  stm32l4xx_hal_spi_ex.o ABSOLUTE
    ../Drivers/STM32L4xx_HAL_Driver/Src/stm32l4xx_hal_tim.c 0x00000000   Number         0  stm32l4xx_hal_tim.o ABSOLUTE
    ../Drivers/STM32L4xx_HAL_Driver/Src/stm32l4xx_hal_tim_ex.c 0x00000000   Number         0  stm32l4xx_hal_tim_ex.o ABSOLUTE
    ../Drivers/STM32L4xx_HAL_Driver/Src/stm32l4xx_hal_uart.c 0x00000000   Number         0  stm32l4xx_hal_uart.o ABSOLUTE
    ../Drivers/STM32L4xx_HAL_Driver/Src/stm32l4xx_hal_uart_ex.c 0x00000000   Number         0  stm32l4xx_hal_uart_ex.o ABSOLUTE
    ../clib/microlib/division.c              0x00000000   Number         0  uidiv.o ABSOLUTE
    ../clib/microlib/division.c              0x00000000   Number         0  uldiv.o ABSOLUTE
    ../clib/microlib/init/entry.s            0x00000000   Number         0  entry10b.o ABSOLUTE
    ../clib/microlib/init/entry.s            0x00000000   Number         0  entry10a.o ABSOLUTE
    ../clib/microlib/init/entry.s            0x00000000   Number         0  entry9a.o ABSOLUTE
    ../clib/microlib/init/entry.s            0x00000000   Number         0  entry8b.o ABSOLUTE
    ../clib/microlib/init/entry.s            0x00000000   Number         0  entry8a.o ABSOLUTE
    ../clib/microlib/init/entry.s            0x00000000   Number         0  entry2.o ABSOLUTE
    ../clib/microlib/init/entry.s            0x00000000   Number         0  entry7b.o ABSOLUTE
    ../clib/microlib/init/entry.s            0x00000000   Number         0  entry9b.o ABSOLUTE
    ../clib/microlib/init/entry.s            0x00000000   Number         0  entry7a.o ABSOLUTE
    ../clib/microlib/init/entry.s            0x00000000   Number         0  entry5.o ABSOLUTE
    ../clib/microlib/init/entry.s            0x00000000   Number         0  entry.o ABSOLUTE
    ../clib/microlib/init/entry.s            0x00000000   Number         0  entry11b.o ABSOLUTE
    ../clib/microlib/init/entry.s            0x00000000   Number         0  entry11a.o ABSOLUTE
    ../clib/microlib/longlong.c              0x00000000   Number         0  llsshr.o ABSOLUTE
    ../clib/microlib/longlong.c              0x00000000   Number         0  llushr.o ABSOLUTE
    ../clib/microlib/longlong.c              0x00000000   Number         0  llshl.o ABSOLUTE
    ../clib/microlib/printf/printf.c         0x00000000   Number         0  printf3.o ABSOLUTE
    ../clib/microlib/printf/printf.c         0x00000000   Number         0  printf0.o ABSOLUTE
    ../clib/microlib/printf/printf.c         0x00000000   Number         0  printf4.o ABSOLUTE
    ../clib/microlib/printf/printf.c         0x00000000   Number         0  printf5.o ABSOLUTE
    ../clib/microlib/printf/printf.c         0x00000000   Number         0  printf6.o ABSOLUTE
    ../clib/microlib/printf/printf.c         0x00000000   Number         0  printf8.o ABSOLUTE
    ../clib/microlib/printf/printf.c         0x00000000   Number         0  printf7.o ABSOLUTE
    ../clib/microlib/printf/printf.c         0x00000000   Number         0  printfb.o ABSOLUTE
    ../clib/microlib/printf/printf.c         0x00000000   Number         0  printf1.o ABSOLUTE
    ../clib/microlib/printf/printf.c         0x00000000   Number         0  printf2.o ABSOLUTE
    ../clib/microlib/printf/printf.c         0x00000000   Number         0  printfa.o ABSOLUTE
    ../clib/microlib/printf/stubs.s          0x00000000   Number         0  stubs.o ABSOLUTE
    ../clib/microlib/stdio/streams.c         0x00000000   Number         0  stdout.o ABSOLUTE
    ../clib/microlib/string/memset.c         0x00000000   Number         0  memseta.o ABSOLUTE
    ../clib/microlib/stubs.s                 0x00000000   Number         0  iusefp.o ABSOLUTE
    ../fplib/microlib/fpadd.c                0x00000000   Number         0  dadd.o ABSOLUTE
    ../fplib/microlib/fpdiv.c                0x00000000   Number         0  ddiv.o ABSOLUTE
    ../fplib/microlib/fpepilogue.c           0x00000000   Number         0  depilogue.o ABSOLUTE
    ../fplib/microlib/fpfix.c                0x00000000   Number         0  dfixui.o ABSOLUTE
    ../fplib/microlib/fpfix.c                0x00000000   Number         0  dfixul.o ABSOLUTE
    ../fplib/microlib/fpflt.c                0x00000000   Number         0  dfltui.o ABSOLUTE
    ../fplib/microlib/fpmul.c                0x00000000   Number         0  dmul.o ABSOLUTE
    ..\Core\Src\gpio.c                       0x00000000   Number         0  gpio.o ABSOLUTE
    ..\Core\Src\main.c                       0x00000000   Number         0  main.o ABSOLUTE
    ..\Core\Src\quadspi.c                    0x00000000   Number         0  quadspi.o ABSOLUTE
    ..\Core\Src\spi.c                        0x00000000   Number         0  spi.o ABSOLUTE
    ..\Core\Src\stm32l4xx_hal_msp.c          0x00000000   Number         0  stm32l4xx_hal_msp.o ABSOLUTE
    ..\Core\Src\stm32l4xx_it.c               0x00000000   Number         0  stm32l4xx_it.o ABSOLUTE
    ..\Core\Src\system_stm32l4xx.c           0x00000000   Number         0  system_stm32l4xx.o ABSOLUTE
    ..\Core\Src\usart.c                      0x00000000   Number         0  usart.o ABSOLUTE
    ..\Drivers\STM32L4xx_HAL_Driver\Src\stm32l4xx_hal.c 0x00000000   Number         0  stm32l4xx_hal.o ABSOLUTE
    ..\Drivers\STM32L4xx_HAL_Driver\Src\stm32l4xx_hal_cortex.c 0x00000000   Number         0  stm32l4xx_hal_cortex.o ABSOLUTE
    ..\Drivers\STM32L4xx_HAL_Driver\Src\stm32l4xx_hal_dma.c 0x00000000   Number         0  stm32l4xx_hal_dma.o ABSOLUTE
    ..\Drivers\STM32L4xx_HAL_Driver\Src\stm32l4xx_hal_dma_ex.c 0x00000000   Number         0  stm32l4xx_hal_dma_ex.o ABSOLUTE
    ..\Drivers\STM32L4xx_HAL_Driver\Src\stm32l4xx_hal_exti.c 0x00000000   Number         0  stm32l4xx_hal_exti.o ABSOLUTE
    ..\Drivers\STM32L4xx_HAL_Driver\Src\stm32l4xx_hal_flash.c 0x00000000   Number         0  stm32l4xx_hal_flash.o ABSOLUTE
    ..\Drivers\STM32L4xx_HAL_Driver\Src\stm32l4xx_hal_flash_ex.c 0x00000000   Number         0  stm32l4xx_hal_flash_ex.o ABSOLUTE
    ..\Drivers\STM32L4xx_HAL_Driver\Src\stm32l4xx_hal_flash_ramfunc.c 0x00000000   Number         0  stm32l4xx_hal_flash_ramfunc.o ABSOLUTE
    ..\Drivers\STM32L4xx_HAL_Driver\Src\stm32l4xx_hal_gpio.c 0x00000000   Number         0  stm32l4xx_hal_gpio.o ABSOLUTE
    ..\Drivers\STM32L4xx_HAL_Driver\Src\stm32l4xx_hal_i2c.c 0x00000000   Number         0  stm32l4xx_hal_i2c.o ABSOLUTE
    ..\Drivers\STM32L4xx_HAL_Driver\Src\stm32l4xx_hal_i2c_ex.c 0x00000000   Number         0  stm32l4xx_hal_i2c_ex.o ABSOLUTE
    ..\Drivers\STM32L4xx_HAL_Driver\Src\stm32l4xx_hal_pwr.c 0x00000000   Number         0  stm32l4xx_hal_pwr.o ABSOLUTE
    ..\Drivers\STM32L4xx_HAL_Driver\Src\stm32l4xx_hal_pwr_ex.c 0x00000000   Number         0  stm32l4xx_hal_pwr_ex.o ABSOLUTE
    ..\Drivers\STM32L4xx_HAL_Driver\Src\stm32l4xx_hal_qspi.c 0x00000000   Number         0  stm32l4xx_hal_qspi.o ABSOLUTE
    ..\Drivers\STM32L4xx_HAL_Driver\Src\stm32l4xx_hal_rcc.c 0x00000000   Number         0  stm32l4xx_hal_rcc.o ABSOLUTE
    ..\Drivers\STM32L4xx_HAL_Driver\Src\stm32l4xx_hal_rcc_ex.c 0x00000000   Number         0  stm32l4xx_hal_rcc_ex.o ABSOLUTE
    ..\Drivers\STM32L4xx_HAL_Driver\Src\stm32l4xx_hal_spi.c 0x00000000   Number         0  stm32l4xx_hal_spi.o ABSOLUTE
    ..\Drivers\STM32L4xx_HAL_Driver\Src\stm32l4xx_hal_spi_ex.c 0x00000000   Number         0  stm32l4xx_hal_spi_ex.o ABSOLUTE
    ..\Drivers\STM32L4xx_HAL_Driver\Src\stm32l4xx_hal_tim.c 0x00000000   Number         0  stm32l4xx_hal_tim.o ABSOLUTE
    ..\Drivers\STM32L4xx_HAL_Driver\Src\stm32l4xx_hal_tim_ex.c 0x00000000   Number         0  stm32l4xx_hal_tim_ex.o ABSOLUTE
    ..\Drivers\STM32L4xx_HAL_Driver\Src\stm32l4xx_hal_uart.c 0x00000000   Number         0  stm32l4xx_hal_uart.o ABSOLUTE
    ..\Drivers\STM32L4xx_HAL_Driver\Src\stm32l4xx_hal_uart_ex.c 0x00000000   Number         0  stm32l4xx_hal_uart_ex.o ABSOLUTE
    ..\Hardware\LCD-SPI\lcd_spi2_drv.c       0x00000000   Number         0  lcd_spi2_drv.o ABSOLUTE
    ..\Hardware\Ui_handler\main_ui.c         0x00000000   Number         0  main_ui.o ABSOLUTE
    ..\W25QXX\W25QXX.c                       0x00000000   Number         0  w25qxx.o ABSOLUTE
    ..\Wenzheng_OTA\Wenzheng_OTA.c           0x00000000   Number         0  wenzheng_ota.o ABSOLUTE
    ..\\Hardware\\LCD-SPI\\lcd_spi2_drv.c    0x00000000   Number         0  lcd_spi2_drv.o ABSOLUTE
    ..\\Hardware\\Ui_handler\\main_ui.c      0x00000000   Number         0  main_ui.o ABSOLUTE
    ..\\W25QXX\\W25QXX.c                     0x00000000   Number         0  w25qxx.o ABSOLUTE
    ..\\Wenzheng_OTA\\Wenzheng_OTA.c         0x00000000   Number         0  wenzheng_ota.o ABSOLUTE
    cdrcmple.s                               0x00000000   Number         0  cdrcmple.o ABSOLUTE
    dc.s                                     0x00000000   Number         0  dc.o ABSOLUTE
    handlers.s                               0x00000000   Number         0  handlers.o ABSOLUTE
    init.s                                   0x00000000   Number         0  init.o ABSOLUTE
    startup_stm32l431xx.s                    0x00000000   Number         0  startup_stm32l431xx.o ABSOLUTE
    RESET                                    0x08000000   Section      396  startup_stm32l431xx.o(RESET)
    .ARM.Collect$$$$00000000                 0x0800018c   Section        0  entry.o(.ARM.Collect$$$$00000000)
    .ARM.Collect$$$$00000001                 0x0800018c   Section        4  entry2.o(.ARM.Collect$$$$00000001)
    .ARM.Collect$$$$00000004                 0x08000190   Section        4  entry5.o(.ARM.Collect$$$$00000004)
    .ARM.Collect$$$$00000008                 0x08000194   Section        0  entry7b.o(.ARM.Collect$$$$00000008)
    .ARM.Collect$$$$0000000A                 0x08000194   Section        0  entry8b.o(.ARM.Collect$$$$0000000A)
    .ARM.Collect$$$$0000000B                 0x08000194   Section        8  entry9a.o(.ARM.Collect$$$$0000000B)
    .ARM.Collect$$$$0000000D                 0x0800019c   Section        0  entry10a.o(.ARM.Collect$$$$0000000D)
    .ARM.Collect$$$$0000000F                 0x0800019c   Section        0  entry11a.o(.ARM.Collect$$$$0000000F)
    .ARM.Collect$$$$00002712                 0x0800019c   Section        4  entry2.o(.ARM.Collect$$$$00002712)
    __lit__00000000                          0x0800019c   Data           4  entry2.o(.ARM.Collect$$$$00002712)
    .emb_text                                0x080001a0   Section        6  wenzheng_ota.o(.emb_text)
    $v0                                      0x080001a0   Number         0  wenzheng_ota.o(.emb_text)
    .text                                    0x080001a8   Section       36  startup_stm32l431xx.o(.text)
    $v0                                      0x080001a8   Number         0  startup_stm32l431xx.o(.text)
    .text                                    0x080001cc   Section        0  uldiv.o(.text)
    .text                                    0x08000234   Section        0  memseta.o(.text)
    .text                                    0x08000258   Section        0  llshl.o(.text)
    .text                                    0x08000276   Section        0  llushr.o(.text)
    .text                                    0x08000298   Section       36  init.o(.text)
    i.BusFault_Handler                       0x080002bc   Section        0  stm32l4xx_it.o(i.BusFault_Handler)
    i.DebugMon_Handler                       0x080002be   Section        0  stm32l4xx_it.o(i.DebugMon_Handler)
    i.Display_Process_Bar                    0x080002c0   Section        0  main_ui.o(i.Display_Process_Bar)
    i.Display_Process_Bar_Frame              0x08000310   Section        0  main_ui.o(i.Display_Process_Bar_Frame)
    i.Erase_page                             0x08000340   Section        0  wenzheng_ota.o(i.Erase_page)
    i.Error_Handler                          0x080003f0   Section        0  main.o(i.Error_Handler)
    i.FLASH_FlushCaches                      0x080003f4   Section        0  stm32l4xx_hal_flash_ex.o(i.FLASH_FlushCaches)
    i.FLASH_MassErase                        0x08000448   Section        0  stm32l4xx_hal_flash_ex.o(i.FLASH_MassErase)
    FLASH_MassErase                          0x08000449   Thumb Code    24  stm32l4xx_hal_flash_ex.o(i.FLASH_MassErase)
    i.FLASH_PageErase                        0x08000464   Section        0  stm32l4xx_hal_flash_ex.o(i.FLASH_PageErase)
    i.FLASH_Program_DoubleWord               0x0800048c   Section        0  stm32l4xx_hal_flash.o(i.FLASH_Program_DoubleWord)
    FLASH_Program_DoubleWord                 0x0800048d   Thumb Code    22  stm32l4xx_hal_flash.o(i.FLASH_Program_DoubleWord)
    i.FLASH_Program_Fast                     0x080004a8   Section        0  stm32l4xx_hal_flash.o(i.FLASH_Program_Fast)
    FLASH_Program_Fast                       0x080004a9   Thumb Code    38  stm32l4xx_hal_flash.o(i.FLASH_Program_Fast)
    i.FLASH_WaitForLastOperation             0x080004d4   Section        0  stm32l4xx_hal_flash.o(i.FLASH_WaitForLastOperation)
    i.GetPage                                0x08000538   Section        0  wenzheng_ota.o(i.GetPage)
    GetPage                                  0x08000539   Thumb Code    74  wenzheng_ota.o(i.GetPage)
    i.HAL_Delay                              0x080005a0   Section        0  stm32l4xx_hal.o(i.HAL_Delay)
    i.HAL_FLASHEx_Erase                      0x080005c4   Section        0  stm32l4xx_hal_flash_ex.o(i.HAL_FLASHEx_Erase)
    i.HAL_FLASH_Lock                         0x080006ac   Section        0  stm32l4xx_hal_flash.o(i.HAL_FLASH_Lock)
    i.HAL_FLASH_Program                      0x080006c0   Section        0  stm32l4xx_hal_flash.o(i.HAL_FLASH_Program)
    i.HAL_FLASH_Unlock                       0x0800076c   Section        0  stm32l4xx_hal_flash.o(i.HAL_FLASH_Unlock)
    i.HAL_GPIO_Init                          0x08000794   Section        0  stm32l4xx_hal_gpio.o(i.HAL_GPIO_Init)
    i.HAL_GPIO_WritePin                      0x08000952   Section        0  stm32l4xx_hal_gpio.o(i.HAL_GPIO_WritePin)
    i.HAL_GetTick                            0x0800095c   Section        0  stm32l4xx_hal.o(i.HAL_GetTick)
    i.HAL_IncTick                            0x08000968   Section        0  stm32l4xx_hal.o(i.HAL_IncTick)
    i.HAL_Init                               0x08000978   Section        0  stm32l4xx_hal.o(i.HAL_Init)
    i.HAL_InitTick                           0x08000998   Section        0  stm32l4xx_hal.o(i.HAL_InitTick)
    i.HAL_MspInit                            0x080009dc   Section        0  stm32l4xx_hal_msp.o(i.HAL_MspInit)
    i.HAL_NVIC_SetPriority                   0x08000a08   Section        0  stm32l4xx_hal_cortex.o(i.HAL_NVIC_SetPriority)
    i.HAL_NVIC_SetPriorityGrouping           0x08000a48   Section        0  stm32l4xx_hal_cortex.o(i.HAL_NVIC_SetPriorityGrouping)
    i.HAL_PWREx_ControlVoltageScaling        0x08000a6c   Section        0  stm32l4xx_hal_pwr_ex.o(i.HAL_PWREx_ControlVoltageScaling)
    i.HAL_PWREx_GetVoltageRange              0x08000ad4   Section        0  stm32l4xx_hal_pwr_ex.o(i.HAL_PWREx_GetVoltageRange)
    i.HAL_QSPI_Command                       0x08000ae4   Section        0  stm32l4xx_hal_qspi.o(i.HAL_QSPI_Command)
    i.HAL_QSPI_Init                          0x08000b70   Section        0  stm32l4xx_hal_qspi.o(i.HAL_QSPI_Init)
    i.HAL_QSPI_MspInit                       0x08000c18   Section        0  quadspi.o(i.HAL_QSPI_MspInit)
    i.HAL_QSPI_Receive                       0x08000c80   Section        0  stm32l4xx_hal_qspi.o(i.HAL_QSPI_Receive)
    i.HAL_QSPI_Transmit                      0x08000d44   Section        0  stm32l4xx_hal_qspi.o(i.HAL_QSPI_Transmit)
    i.HAL_RCCEx_PeriphCLKConfig              0x08000e00   Section        0  stm32l4xx_hal_rcc_ex.o(i.HAL_RCCEx_PeriphCLKConfig)
    i.HAL_RCC_ClockConfig                    0x080010bc   Section        0  stm32l4xx_hal_rcc.o(i.HAL_RCC_ClockConfig)
    i.HAL_RCC_GetPCLK1Freq                   0x080011dc   Section        0  stm32l4xx_hal_rcc.o(i.HAL_RCC_GetPCLK1Freq)
    i.HAL_RCC_GetPCLK2Freq                   0x08001200   Section        0  stm32l4xx_hal_rcc.o(i.HAL_RCC_GetPCLK2Freq)
    i.HAL_RCC_GetSysClockFreq                0x08001224   Section        0  stm32l4xx_hal_rcc.o(i.HAL_RCC_GetSysClockFreq)
    i.HAL_RCC_OscConfig                      0x080012c8   Section        0  stm32l4xx_hal_rcc.o(i.HAL_RCC_OscConfig)
    i.HAL_SPI_Init                           0x08001834   Section        0  stm32l4xx_hal_spi.o(i.HAL_SPI_Init)
    i.HAL_SPI_MspInit                        0x08001914   Section        0  spi.o(i.HAL_SPI_MspInit)
    i.HAL_SPI_Transmit                       0x08001994   Section        0  stm32l4xx_hal_spi.o(i.HAL_SPI_Transmit)
    i.HAL_SYSTICK_Config                     0x08001b22   Section        0  stm32l4xx_hal_cortex.o(i.HAL_SYSTICK_Config)
    i.HAL_UART_Init                          0x08001b4a   Section        0  stm32l4xx_hal_uart.o(i.HAL_UART_Init)
    i.HAL_UART_MspInit                       0x08001bb0   Section        0  usart.o(i.HAL_UART_MspInit)
    i.HAL_UART_Transmit                      0x08001c40   Section        0  stm32l4xx_hal_uart.o(i.HAL_UART_Transmit)
    i.HardFault_Handler                      0x08001cf6   Section        0  stm32l4xx_it.o(i.HardFault_Handler)
    i.IAP_ExecuteApp                         0x08001cf8   Section        0  wenzheng_ota.o(i.IAP_ExecuteApp)
    i.LCD_Address_Set                        0x08001dc8   Section        0  lcd_spi2_drv.o(i.LCD_Address_Set)
    i.LCD_Clear                              0x08001e1c   Section        0  lcd_spi2_drv.o(i.LCD_Clear)
    i.LCD_DisplayOn                          0x08001e74   Section        0  lcd_spi2_drv.o(i.LCD_DisplayOn)
    i.LCD_Draw_ColorLine                     0x08001e84   Section        0  lcd_spi2_drv.o(i.LCD_Draw_ColorLine)
    i.LCD_Draw_ColorPoint                    0x08001f8c   Section        0  lcd_spi2_drv.o(i.LCD_Draw_ColorPoint)
    i.LCD_Draw_ColorRect                     0x08001fa2   Section        0  lcd_spi2_drv.o(i.LCD_Draw_ColorRect)
    i.LCD_Fill                               0x08001fe8   Section        0  lcd_spi2_drv.o(i.LCD_Fill)
    i.LCD_GPIO_Init                          0x08002068   Section        0  lcd_spi2_drv.o(i.LCD_GPIO_Init)
    LCD_GPIO_Init                            0x08002069   Thumb Code   178  lcd_spi2_drv.o(i.LCD_GPIO_Init)
    i.LCD_Init                               0x08002128   Section        0  lcd_spi2_drv.o(i.LCD_Init)
    i.LCD_SPI_Send                           0x080022b8   Section        0  lcd_spi2_drv.o(i.LCD_SPI_Send)
    LCD_SPI_Send                             0x080022b9   Thumb Code     4  lcd_spi2_drv.o(i.LCD_SPI_Send)
    i.LCD_ShowChar                           0x080022bc   Section        0  lcd_spi2_drv.o(i.LCD_ShowChar)
    i.LCD_ShowCharStr                        0x08002382   Section        0  lcd_spi2_drv.o(i.LCD_ShowCharStr)
    i.LCD_Show_Image                         0x080023c8   Section        0  lcd_spi2_drv.o(i.LCD_Show_Image)
    i.LCD_Write_2Byte                        0x0800243c   Section        0  lcd_spi2_drv.o(i.LCD_Write_2Byte)
    i.LCD_Write_Cmd                          0x08002464   Section        0  lcd_spi2_drv.o(i.LCD_Write_Cmd)
    i.LCD_Write_Data                         0x08002480   Section        0  lcd_spi2_drv.o(i.LCD_Write_Data)
    i.MX_GPIO_Init                           0x0800249c   Section        0  gpio.o(i.MX_GPIO_Init)
    i.MX_QUADSPI_Init                        0x08002540   Section        0  quadspi.o(i.MX_QUADSPI_Init)
    i.MX_SPI2_Init                           0x08002580   Section        0  spi.o(i.MX_SPI2_Init)
    i.MX_USART1_UART_Init                    0x080025d0   Section        0  usart.o(i.MX_USART1_UART_Init)
    i.MX_USART2_UART_Init                    0x0800260c   Section        0  usart.o(i.MX_USART2_UART_Init)
    i.MemManage_Handler                      0x08002648   Section        0  stm32l4xx_it.o(i.MemManage_Handler)
    i.Mov_code_W25Q                          0x0800264c   Section        0  wenzheng_ota.o(i.Mov_code_W25Q)
    i.MoveCode                               0x08002720   Section        0  wenzheng_ota.o(i.MoveCode)
    i.NMI_Handler                            0x08002844   Section        0  stm32l4xx_it.o(i.NMI_Handler)
    i.PendSV_Handler                         0x08002846   Section        0  stm32l4xx_it.o(i.PendSV_Handler)
    i.QSPI_Config                            0x08002848   Section        0  stm32l4xx_hal_qspi.o(i.QSPI_Config)
    QSPI_Config                              0x08002849   Thumb Code   350  stm32l4xx_hal_qspi.o(i.QSPI_Config)
    i.QSPI_Receive                           0x080029a8   Section        0  w25qxx.o(i.QSPI_Receive)
    i.QSPI_Send_Command                      0x080029c0   Section        0  w25qxx.o(i.QSPI_Send_Command)
    i.QSPI_Transmit                          0x080029f8   Section        0  w25qxx.o(i.QSPI_Transmit)
    i.QSPI_WaitFlagStateUntilTimeout         0x08002a10   Section        0  stm32l4xx_hal_qspi.o(i.QSPI_WaitFlagStateUntilTimeout)
    QSPI_WaitFlagStateUntilTimeout           0x08002a11   Thumb Code    72  stm32l4xx_hal_qspi.o(i.QSPI_WaitFlagStateUntilTimeout)
    i.RCCEx_PLLSAI1_Config                   0x08002a58   Section        0  stm32l4xx_hal_rcc_ex.o(i.RCCEx_PLLSAI1_Config)
    RCCEx_PLLSAI1_Config                     0x08002a59   Thumb Code   278  stm32l4xx_hal_rcc_ex.o(i.RCCEx_PLLSAI1_Config)
    i.RCC_SetFlashLatencyFromMSIRange        0x08002b84   Section        0  stm32l4xx_hal_rcc.o(i.RCC_SetFlashLatencyFromMSIRange)
    RCC_SetFlashLatencyFromMSIRange          0x08002b85   Thumb Code   116  stm32l4xx_hal_rcc.o(i.RCC_SetFlashLatencyFromMSIRange)
    i.ReadFlash                              0x08002c00   Section        0  wenzheng_ota.o(i.ReadFlash)
    i.Read_APP_None                          0x08002c14   Section        0  wenzheng_ota.o(i.Read_APP_None)
    i.Read_Start_Mode                        0x08002c30   Section        0  wenzheng_ota.o(i.Read_Start_Mode)
    i.SPI2_WriteByte                         0x08002c4c   Section        0  spi.o(i.SPI2_WriteByte)
    i.SPI_EndRxTxTransaction                 0x08002c60   Section        0  stm32l4xx_hal_spi.o(i.SPI_EndRxTxTransaction)
    SPI_EndRxTxTransaction                   0x08002c61   Thumb Code    72  stm32l4xx_hal_spi.o(i.SPI_EndRxTxTransaction)
    i.SPI_WaitFifoStateUntilTimeout          0x08002ca8   Section        0  stm32l4xx_hal_spi.o(i.SPI_WaitFifoStateUntilTimeout)
    SPI_WaitFifoStateUntilTimeout            0x08002ca9   Thumb Code   196  stm32l4xx_hal_spi.o(i.SPI_WaitFifoStateUntilTimeout)
    i.SPI_WaitFlagStateUntilTimeout          0x08002d78   Section        0  stm32l4xx_hal_spi.o(i.SPI_WaitFlagStateUntilTimeout)
    SPI_WaitFlagStateUntilTimeout            0x08002d79   Thumb Code   180  stm32l4xx_hal_spi.o(i.SPI_WaitFlagStateUntilTimeout)
    i.SVC_Handler                            0x08002e30   Section        0  stm32l4xx_it.o(i.SVC_Handler)
    i.Start_BootLoader                       0x08002e34   Section        0  wenzheng_ota.o(i.Start_BootLoader)
    i.SysTick_Handler                        0x08003114   Section        0  stm32l4xx_it.o(i.SysTick_Handler)
    i.SystemClock_Config                     0x08003118   Section        0  main.o(i.SystemClock_Config)
    i.SystemInit                             0x0800318c   Section        0  system_stm32l4xx.o(i.SystemInit)
    i.UART_AdvFeatureConfig                  0x080031d0   Section        0  stm32l4xx_hal_uart.o(i.UART_AdvFeatureConfig)
    i.UART_CheckIdleState                    0x08003298   Section        0  stm32l4xx_hal_uart.o(i.UART_CheckIdleState)
    i.UART_SetConfig                         0x080032f0   Section        0  stm32l4xx_hal_uart.o(i.UART_SetConfig)
    i.UART_WaitOnFlagUntilTimeout            0x080034f4   Section        0  stm32l4xx_hal_uart.o(i.UART_WaitOnFlagUntilTimeout)
    i.UsageFault_Handler                     0x08003598   Section        0  stm32l4xx_it.o(i.UsageFault_Handler)
    i.W25QXX_Erase_Sector                    0x0800359a   Section        0  w25qxx.o(i.W25QXX_Erase_Sector)
    i.W25QXX_Page_Program                    0x080035c4   Section        0  w25qxx.o(i.W25QXX_Page_Program)
    i.W25QXX_Read                            0x080035f8   Section        0  w25qxx.o(i.W25QXX_Read)
    i.W25QXX_ReadID                          0x0800362a   Section        0  w25qxx.o(i.W25QXX_ReadID)
    i.W25QXX_ReadSR                          0x08003662   Section        0  w25qxx.o(i.W25QXX_ReadSR)
    i.W25QXX_Wait_Busy                       0x0800368e   Section        0  w25qxx.o(i.W25QXX_Wait_Busy)
    i.W25QXX_Write_Enable                    0x0800369c   Section        0  w25qxx.o(i.W25QXX_Write_Enable)
    i.WriteFlash                             0x080036bc   Section        0  wenzheng_ota.o(i.WriteFlash)
    i.__0printf$8                            0x080036ec   Section        0  printf8.o(i.__0printf$8)
    i.__NVIC_SetPriority                     0x0800370c   Section        0  stm32l4xx_hal_cortex.o(i.__NVIC_SetPriority)
    __NVIC_SetPriority                       0x0800370d   Thumb Code    32  stm32l4xx_hal_cortex.o(i.__NVIC_SetPriority)
    i.__scatterload_copy                     0x0800372c   Section       14  handlers.o(i.__scatterload_copy)
    i.__scatterload_null                     0x0800373a   Section        2  handlers.o(i.__scatterload_null)
    i.__scatterload_zeroinit                 0x0800373c   Section       14  handlers.o(i.__scatterload_zeroinit)
    i._printf_core                           0x0800374c   Section        0  printf8.o(i._printf_core)
    _printf_core                             0x0800374d   Thumb Code   996  printf8.o(i._printf_core)
    i._printf_post_padding                   0x08003b62   Section        0  printf8.o(i._printf_post_padding)
    _printf_post_padding                     0x08003b63   Thumb Code    36  printf8.o(i._printf_post_padding)
    i._printf_pre_padding                    0x08003b86   Section        0  printf8.o(i._printf_pre_padding)
    _printf_pre_padding                      0x08003b87   Thumb Code    46  printf8.o(i._printf_pre_padding)
    i.fputc                                  0x08003bb4   Section        0  usart.o(i.fputc)
    i.main                                   0x08003bcc   Section        0  main.o(i.main)
    i.rollback_APP                           0x08003c8c   Section        0  wenzheng_ota.o(i.rollback_APP)
    .constdata                               0x08003d60   Section    32768  main.o(.constdata)
    .constdata                               0x0800bd60   Section       64  system_stm32l4xx.o(.constdata)
    .constdata                               0x0800bda0   Section        8  system_stm32l4xx.o(.constdata)
    .constdata                               0x0800bda8   Section     5700  lcd_spi2_drv.o(.constdata)
    .data                                    0x20000000   Section       12  stm32l4xx_hal.o(.data)
    .data                                    0x2000000c   Section       32  stm32l4xx_hal_flash.o(.data)
    .data                                    0x2000002c   Section        4  system_stm32l4xx.o(.data)
    .data                                    0x20000030   Section        4  stdout.o(.data)
    .bss                                     0x20000034   Section       76  quadspi.o(.bss)
    .bss                                     0x20000080   Section      100  spi.o(.bss)
    .bss                                     0x200000e4   Section      256  usart.o(.bss)
    .bss                                     0x200001e4   Section     1152  lcd_spi2_drv.o(.bss)
    lcd_buf                                  0x200001e4   Data        1152  lcd_spi2_drv.o(.bss)
    STACK                                    0x20000668   Section     2048  startup_stm32l431xx.o(STACK)

    Global Symbols

    Symbol Name                              Value     Ov Type        Size  Object(Section)

    BuildAttributes$$THM_ISAv4$E$P$D$K$B$S$7EM$VFPi3$EXTD16$VFPS$VFMA$PE$A:L22UL41UL21$X:L11$S22US41US21$IEEE1$IW$USESV6$~STKCKD$USESV7$~SHL$OSPACE$ROPI$EBA8$MICROLIB$REQ8$PRES8$EABIv2 0x00000000   Number         0  anon$$obj.o ABSOLUTE
    __ARM_use_no_argv                        0x00000000   Number         0  main.o ABSOLUTE
    _printf_a                                0x00000000   Number         0  stubs.o ABSOLUTE
    _printf_c                                0x00000000   Number         0  stubs.o ABSOLUTE
    _printf_charcount                        0x00000000   Number         0  stubs.o ABSOLUTE
    _printf_d                                0x00000000   Number         0  stubs.o ABSOLUTE
    _printf_e                                0x00000000   Number         0  stubs.o ABSOLUTE
    _printf_f                                0x00000000   Number         0  stubs.o ABSOLUTE
    _printf_flags                            0x00000000   Number         0  stubs.o ABSOLUTE
    _printf_fp_dec                           0x00000000   Number         0  stubs.o ABSOLUTE
    _printf_fp_hex                           0x00000000   Number         0  stubs.o ABSOLUTE
    _printf_g                                0x00000000   Number         0  stubs.o ABSOLUTE
    _printf_i                                0x00000000   Number         0  stubs.o ABSOLUTE
    _printf_int_dec                          0x00000000   Number         0  stubs.o ABSOLUTE
    _printf_l                                0x00000000   Number         0  stubs.o ABSOLUTE
    _printf_lc                               0x00000000   Number         0  stubs.o ABSOLUTE
    _printf_ll                               0x00000000   Number         0  stubs.o ABSOLUTE
    _printf_lld                              0x00000000   Number         0  stubs.o ABSOLUTE
    _printf_lli                              0x00000000   Number         0  stubs.o ABSOLUTE
    _printf_llo                              0x00000000   Number         0  stubs.o ABSOLUTE
    _printf_llu                              0x00000000   Number         0  stubs.o ABSOLUTE
    _printf_llx                              0x00000000   Number         0  stubs.o ABSOLUTE
    _printf_longlong_dec                     0x00000000   Number         0  stubs.o ABSOLUTE
    _printf_longlong_hex                     0x00000000   Number         0  stubs.o ABSOLUTE
    _printf_longlong_oct                     0x00000000   Number         0  stubs.o ABSOLUTE
    _printf_ls                               0x00000000   Number         0  stubs.o ABSOLUTE
    _printf_mbtowc                           0x00000000   Number         0  stubs.o ABSOLUTE
    _printf_n                                0x00000000   Number         0  stubs.o ABSOLUTE
    _printf_o                                0x00000000   Number         0  stubs.o ABSOLUTE
    _printf_p                                0x00000000   Number         0  stubs.o ABSOLUTE
    _printf_percent                          0x00000000   Number         0  stubs.o ABSOLUTE
    _printf_pre_padding                      0x00000000   Number         0  stubs.o ABSOLUTE
    _printf_return_value                     0x00000000   Number         0  stubs.o ABSOLUTE
    _printf_s                                0x00000000   Number         0  stubs.o ABSOLUTE
    _printf_sizespec                         0x00000000   Number         0  stubs.o ABSOLUTE
    _printf_str                              0x00000000   Number         0  stubs.o ABSOLUTE
    _printf_truncate_signed                  0x00000000   Number         0  stubs.o ABSOLUTE
    _printf_truncate_unsigned                0x00000000   Number         0  stubs.o ABSOLUTE
    _printf_u                                0x00000000   Number         0  stubs.o ABSOLUTE
    _printf_wc                               0x00000000   Number         0  stubs.o ABSOLUTE
    _printf_wctomb                           0x00000000   Number         0  stubs.o ABSOLUTE
    _printf_widthprec                        0x00000000   Number         0  stubs.o ABSOLUTE
    _printf_x                                0x00000000   Number         0  stubs.o ABSOLUTE
    __cpp_initialize__aeabi_                  - Undefined Weak Reference
    __cxa_finalize                            - Undefined Weak Reference
    __decompress                              - Undefined Weak Reference
    _clock_init                               - Undefined Weak Reference
    _microlib_exit                            - Undefined Weak Reference
    __Vectors_Size                           0x0000018c   Number         0  startup_stm32l431xx.o ABSOLUTE
    __Vectors                                0x08000000   Data           4  startup_stm32l431xx.o(RESET)
    __Vectors_End                            0x0800018c   Data           0  startup_stm32l431xx.o(RESET)
    __main                                   0x0800018d   Thumb Code     0  entry.o(.ARM.Collect$$$$00000000)
    _main_stk                                0x0800018d   Thumb Code     0  entry2.o(.ARM.Collect$$$$00000001)
    _main_scatterload                        0x08000191   Thumb Code     0  entry5.o(.ARM.Collect$$$$00000004)
    __main_after_scatterload                 0x08000195   Thumb Code     0  entry5.o(.ARM.Collect$$$$00000004)
    _main_clock                              0x08000195   Thumb Code     0  entry7b.o(.ARM.Collect$$$$00000008)
    _main_cpp_init                           0x08000195   Thumb Code     0  entry8b.o(.ARM.Collect$$$$0000000A)
    _main_init                               0x08000195   Thumb Code     0  entry9a.o(.ARM.Collect$$$$0000000B)
    __rt_final_cpp                           0x0800019d   Thumb Code     0  entry10a.o(.ARM.Collect$$$$0000000D)
    __rt_final_exit                          0x0800019d   Thumb Code     0  entry11a.o(.ARM.Collect$$$$0000000F)
    MSR_MSP                                  0x080001a1   Thumb Code     6  wenzheng_ota.o(.emb_text)
    Reset_Handler                            0x080001a9   Thumb Code     8  startup_stm32l431xx.o(.text)
    ADC1_IRQHandler                          0x080001c3   Thumb Code     0  startup_stm32l431xx.o(.text)
    CAN1_RX0_IRQHandler                      0x080001c3   Thumb Code     0  startup_stm32l431xx.o(.text)
    CAN1_RX1_IRQHandler                      0x080001c3   Thumb Code     0  startup_stm32l431xx.o(.text)
    CAN1_SCE_IRQHandler                      0x080001c3   Thumb Code     0  startup_stm32l431xx.o(.text)
    CAN1_TX_IRQHandler                       0x080001c3   Thumb Code     0  startup_stm32l431xx.o(.text)
    COMP_IRQHandler                          0x080001c3   Thumb Code     0  startup_stm32l431xx.o(.text)
    CRS_IRQHandler                           0x080001c3   Thumb Code     0  startup_stm32l431xx.o(.text)
    DMA1_Channel1_IRQHandler                 0x080001c3   Thumb Code     0  startup_stm32l431xx.o(.text)
    DMA1_Channel2_IRQHandler                 0x080001c3   Thumb Code     0  startup_stm32l431xx.o(.text)
    DMA1_Channel3_IRQHandler                 0x080001c3   Thumb Code     0  startup_stm32l431xx.o(.text)
    DMA1_Channel4_IRQHandler                 0x080001c3   Thumb Code     0  startup_stm32l431xx.o(.text)
    DMA1_Channel5_IRQHandler                 0x080001c3   Thumb Code     0  startup_stm32l431xx.o(.text)
    DMA1_Channel6_IRQHandler                 0x080001c3   Thumb Code     0  startup_stm32l431xx.o(.text)
    DMA1_Channel7_IRQHandler                 0x080001c3   Thumb Code     0  startup_stm32l431xx.o(.text)
    DMA2_Channel1_IRQHandler                 0x080001c3   Thumb Code     0  startup_stm32l431xx.o(.text)
    DMA2_Channel2_IRQHandler                 0x080001c3   Thumb Code     0  startup_stm32l431xx.o(.text)
    DMA2_Channel3_IRQHandler                 0x080001c3   Thumb Code     0  startup_stm32l431xx.o(.text)
    DMA2_Channel4_IRQHandler                 0x080001c3   Thumb Code     0  startup_stm32l431xx.o(.text)
    DMA2_Channel5_IRQHandler                 0x080001c3   Thumb Code     0  startup_stm32l431xx.o(.text)
    DMA2_Channel6_IRQHandler                 0x080001c3   Thumb Code     0  startup_stm32l431xx.o(.text)
    DMA2_Channel7_IRQHandler                 0x080001c3   Thumb Code     0  startup_stm32l431xx.o(.text)
    EXTI0_IRQHandler                         0x080001c3   Thumb Code     0  startup_stm32l431xx.o(.text)
    EXTI15_10_IRQHandler                     0x080001c3   Thumb Code     0  startup_stm32l431xx.o(.text)
    EXTI1_IRQHandler                         0x080001c3   Thumb Code     0  startup_stm32l431xx.o(.text)
    EXTI2_IRQHandler                         0x080001c3   Thumb Code     0  startup_stm32l431xx.o(.text)
    EXTI3_IRQHandler                         0x080001c3   Thumb Code     0  startup_stm32l431xx.o(.text)
    EXTI4_IRQHandler                         0x080001c3   Thumb Code     0  startup_stm32l431xx.o(.text)
    EXTI9_5_IRQHandler                       0x080001c3   Thumb Code     0  startup_stm32l431xx.o(.text)
    FLASH_IRQHandler                         0x080001c3   Thumb Code     0  startup_stm32l431xx.o(.text)
    FPU_IRQHandler                           0x080001c3   Thumb Code     0  startup_stm32l431xx.o(.text)
    I2C1_ER_IRQHandler                       0x080001c3   Thumb Code     0  startup_stm32l431xx.o(.text)
    I2C1_EV_IRQHandler                       0x080001c3   Thumb Code     0  startup_stm32l431xx.o(.text)
    I2C2_ER_IRQHandler                       0x080001c3   Thumb Code     0  startup_stm32l431xx.o(.text)
    I2C2_EV_IRQHandler                       0x080001c3   Thumb Code     0  startup_stm32l431xx.o(.text)
    I2C3_ER_IRQHandler                       0x080001c3   Thumb Code     0  startup_stm32l431xx.o(.text)
    I2C3_EV_IRQHandler                       0x080001c3   Thumb Code     0  startup_stm32l431xx.o(.text)
    LPTIM1_IRQHandler                        0x080001c3   Thumb Code     0  startup_stm32l431xx.o(.text)
    LPTIM2_IRQHandler                        0x080001c3   Thumb Code     0  startup_stm32l431xx.o(.text)
    LPUART1_IRQHandler                       0x080001c3   Thumb Code     0  startup_stm32l431xx.o(.text)
    PVD_PVM_IRQHandler                       0x080001c3   Thumb Code     0  startup_stm32l431xx.o(.text)
    QUADSPI_IRQHandler                       0x080001c3   Thumb Code     0  startup_stm32l431xx.o(.text)
    RCC_IRQHandler                           0x080001c3   Thumb Code     0  startup_stm32l431xx.o(.text)
    RNG_IRQHandler                           0x080001c3   Thumb Code     0  startup_stm32l431xx.o(.text)
    RTC_Alarm_IRQHandler                     0x080001c3   Thumb Code     0  startup_stm32l431xx.o(.text)
    RTC_WKUP_IRQHandler                      0x080001c3   Thumb Code     0  startup_stm32l431xx.o(.text)
    SAI1_IRQHandler                          0x080001c3   Thumb Code     0  startup_stm32l431xx.o(.text)
    SDMMC1_IRQHandler                        0x080001c3   Thumb Code     0  startup_stm32l431xx.o(.text)
    SPI1_IRQHandler                          0x080001c3   Thumb Code     0  startup_stm32l431xx.o(.text)
    SPI2_IRQHandler                          0x080001c3   Thumb Code     0  startup_stm32l431xx.o(.text)
    SPI3_IRQHandler                          0x080001c3   Thumb Code     0  startup_stm32l431xx.o(.text)
    SWPMI1_IRQHandler                        0x080001c3   Thumb Code     0  startup_stm32l431xx.o(.text)
    TAMP_STAMP_IRQHandler                    0x080001c3   Thumb Code     0  startup_stm32l431xx.o(.text)
    TIM1_BRK_TIM15_IRQHandler                0x080001c3   Thumb Code     0  startup_stm32l431xx.o(.text)
    TIM1_CC_IRQHandler                       0x080001c3   Thumb Code     0  startup_stm32l431xx.o(.text)
    TIM1_TRG_COM_IRQHandler                  0x080001c3   Thumb Code     0  startup_stm32l431xx.o(.text)
    TIM1_UP_TIM16_IRQHandler                 0x080001c3   Thumb Code     0  startup_stm32l431xx.o(.text)
    TIM2_IRQHandler                          0x080001c3   Thumb Code     0  startup_stm32l431xx.o(.text)
    TIM6_DAC_IRQHandler                      0x080001c3   Thumb Code     0  startup_stm32l431xx.o(.text)
    TIM7_IRQHandler                          0x080001c3   Thumb Code     0  startup_stm32l431xx.o(.text)
    TSC_IRQHandler                           0x080001c3   Thumb Code     0  startup_stm32l431xx.o(.text)
    USART1_IRQHandler                        0x080001c3   Thumb Code     0  startup_stm32l431xx.o(.text)
    USART2_IRQHandler                        0x080001c3   Thumb Code     0  startup_stm32l431xx.o(.text)
    USART3_IRQHandler                        0x080001c3   Thumb Code     0  startup_stm32l431xx.o(.text)
    WWDG_IRQHandler                          0x080001c3   Thumb Code     0  startup_stm32l431xx.o(.text)
    __aeabi_uldivmod                         0x080001cd   Thumb Code    98  uldiv.o(.text)
    __aeabi_memset                           0x08000235   Thumb Code    14  memseta.o(.text)
    __aeabi_memset4                          0x08000235   Thumb Code     0  memseta.o(.text)
    __aeabi_memset8                          0x08000235   Thumb Code     0  memseta.o(.text)
    __aeabi_memclr                           0x08000243   Thumb Code     4  memseta.o(.text)
    __aeabi_memclr4                          0x08000243   Thumb Code     0  memseta.o(.text)
    __aeabi_memclr8                          0x08000243   Thumb Code     0  memseta.o(.text)
    _memset$wrapper                          0x08000247   Thumb Code    18  memseta.o(.text)
    __aeabi_llsl                             0x08000259   Thumb Code    30  llshl.o(.text)
    _ll_shift_l                              0x08000259   Thumb Code     0  llshl.o(.text)
    __aeabi_llsr                             0x08000277   Thumb Code    32  llushr.o(.text)
    _ll_ushift_r                             0x08000277   Thumb Code     0  llushr.o(.text)
    __scatterload                            0x08000299   Thumb Code    28  init.o(.text)
    __scatterload_rt2                        0x08000299   Thumb Code     0  init.o(.text)
    BusFault_Handler                         0x080002bd   Thumb Code     2  stm32l4xx_it.o(i.BusFault_Handler)
    DebugMon_Handler                         0x080002bf   Thumb Code     2  stm32l4xx_it.o(i.DebugMon_Handler)
    Display_Process_Bar                      0x080002c1   Thumb Code    66  main_ui.o(i.Display_Process_Bar)
    Display_Process_Bar_Frame                0x08000311   Thumb Code    48  main_ui.o(i.Display_Process_Bar_Frame)
    Erase_page                               0x08000341   Thumb Code    88  wenzheng_ota.o(i.Erase_page)
    Error_Handler                            0x080003f1   Thumb Code     2  main.o(i.Error_Handler)
    FLASH_FlushCaches                        0x080003f5   Thumb Code    76  stm32l4xx_hal_flash_ex.o(i.FLASH_FlushCaches)
    FLASH_PageErase                          0x08000465   Thumb Code    34  stm32l4xx_hal_flash_ex.o(i.FLASH_PageErase)
    FLASH_WaitForLastOperation               0x080004d5   Thumb Code    86  stm32l4xx_hal_flash.o(i.FLASH_WaitForLastOperation)
    HAL_Delay                                0x080005a1   Thumb Code    32  stm32l4xx_hal.o(i.HAL_Delay)
    HAL_FLASHEx_Erase                        0x080005c5   Thumb Code   216  stm32l4xx_hal_flash_ex.o(i.HAL_FLASHEx_Erase)
    HAL_FLASH_Lock                           0x080006ad   Thumb Code    14  stm32l4xx_hal_flash.o(i.HAL_FLASH_Lock)
    HAL_FLASH_Program                        0x080006c1   Thumb Code   156  stm32l4xx_hal_flash.o(i.HAL_FLASH_Program)
    HAL_FLASH_Unlock                         0x0800076d   Thumb Code    28  stm32l4xx_hal_flash.o(i.HAL_FLASH_Unlock)
    HAL_GPIO_Init                            0x08000795   Thumb Code   412  stm32l4xx_hal_gpio.o(i.HAL_GPIO_Init)
    HAL_GPIO_WritePin                        0x08000953   Thumb Code    10  stm32l4xx_hal_gpio.o(i.HAL_GPIO_WritePin)
    HAL_GetTick                              0x0800095d   Thumb Code     6  stm32l4xx_hal.o(i.HAL_GetTick)
    HAL_IncTick                              0x08000969   Thumb Code    12  stm32l4xx_hal.o(i.HAL_IncTick)
    HAL_Init                                 0x08000979   Thumb Code    30  stm32l4xx_hal.o(i.HAL_Init)
    HAL_InitTick                             0x08000999   Thumb Code    58  stm32l4xx_hal.o(i.HAL_InitTick)
    HAL_MspInit                              0x080009dd   Thumb Code    38  stm32l4xx_hal_msp.o(i.HAL_MspInit)
    HAL_NVIC_SetPriority                     0x08000a09   Thumb Code    60  stm32l4xx_hal_cortex.o(i.HAL_NVIC_SetPriority)
    HAL_NVIC_SetPriorityGrouping             0x08000a49   Thumb Code    26  stm32l4xx_hal_cortex.o(i.HAL_NVIC_SetPriorityGrouping)
    HAL_PWREx_ControlVoltageScaling          0x08000a6d   Thumb Code    90  stm32l4xx_hal_pwr_ex.o(i.HAL_PWREx_ControlVoltageScaling)
    HAL_PWREx_GetVoltageRange                0x08000ad5   Thumb Code    10  stm32l4xx_hal_pwr_ex.o(i.HAL_PWREx_GetVoltageRange)
    HAL_QSPI_Command                         0x08000ae5   Thumb Code   134  stm32l4xx_hal_qspi.o(i.HAL_QSPI_Command)
    HAL_QSPI_Init                            0x08000b71   Thumb Code   158  stm32l4xx_hal_qspi.o(i.HAL_QSPI_Init)
    HAL_QSPI_MspInit                         0x08000c19   Thumb Code    90  quadspi.o(i.HAL_QSPI_MspInit)
    HAL_QSPI_Receive                         0x08000c81   Thumb Code   190  stm32l4xx_hal_qspi.o(i.HAL_QSPI_Receive)
    HAL_QSPI_Transmit                        0x08000d45   Thumb Code   182  stm32l4xx_hal_qspi.o(i.HAL_QSPI_Transmit)
    HAL_RCCEx_PeriphCLKConfig                0x08000e01   Thumb Code   682  stm32l4xx_hal_rcc_ex.o(i.HAL_RCCEx_PeriphCLKConfig)
    HAL_RCC_ClockConfig                      0x080010bd   Thumb Code   266  stm32l4xx_hal_rcc.o(i.HAL_RCC_ClockConfig)
    HAL_RCC_GetPCLK1Freq                     0x080011dd   Thumb Code    24  stm32l4xx_hal_rcc.o(i.HAL_RCC_GetPCLK1Freq)
    HAL_RCC_GetPCLK2Freq                     0x08001201   Thumb Code    24  stm32l4xx_hal_rcc.o(i.HAL_RCC_GetPCLK2Freq)
    HAL_RCC_GetSysClockFreq                  0x08001225   Thumb Code   150  stm32l4xx_hal_rcc.o(i.HAL_RCC_GetSysClockFreq)
    HAL_RCC_OscConfig                        0x080012c9   Thumb Code  1382  stm32l4xx_hal_rcc.o(i.HAL_RCC_OscConfig)
    HAL_SPI_Init                             0x08001835   Thumb Code   224  stm32l4xx_hal_spi.o(i.HAL_SPI_Init)
    HAL_SPI_MspInit                          0x08001915   Thumb Code   112  spi.o(i.HAL_SPI_MspInit)
    HAL_SPI_Transmit                         0x08001995   Thumb Code   392  stm32l4xx_hal_spi.o(i.HAL_SPI_Transmit)
    HAL_SYSTICK_Config                       0x08001b23   Thumb Code    40  stm32l4xx_hal_cortex.o(i.HAL_SYSTICK_Config)
    HAL_UART_Init                            0x08001b4b   Thumb Code   102  stm32l4xx_hal_uart.o(i.HAL_UART_Init)
    HAL_UART_MspInit                         0x08001bb1   Thumb Code   132  usart.o(i.HAL_UART_MspInit)
    HAL_UART_Transmit                        0x08001c41   Thumb Code   182  stm32l4xx_hal_uart.o(i.HAL_UART_Transmit)
    HardFault_Handler                        0x08001cf7   Thumb Code     2  stm32l4xx_it.o(i.HardFault_Handler)
    IAP_ExecuteApp                           0x08001cf9   Thumb Code   114  wenzheng_ota.o(i.IAP_ExecuteApp)
    LCD_Address_Set                          0x08001dc9   Thumb Code    82  lcd_spi2_drv.o(i.LCD_Address_Set)
    LCD_Clear                                0x08001e1d   Thumb Code    80  lcd_spi2_drv.o(i.LCD_Clear)
    LCD_DisplayOn                            0x08001e75   Thumb Code    10  lcd_spi2_drv.o(i.LCD_DisplayOn)
    LCD_Draw_ColorLine                       0x08001e85   Thumb Code   238  lcd_spi2_drv.o(i.LCD_Draw_ColorLine)
    LCD_Draw_ColorPoint                      0x08001f8d   Thumb Code    22  lcd_spi2_drv.o(i.LCD_Draw_ColorPoint)
    LCD_Draw_ColorRect                       0x08001fa3   Thumb Code    68  lcd_spi2_drv.o(i.LCD_Draw_ColorRect)
    LCD_Fill                                 0x08001fe9   Thumb Code   118  lcd_spi2_drv.o(i.LCD_Fill)
    LCD_Init                                 0x08002129   Thumb Code   400  lcd_spi2_drv.o(i.LCD_Init)
    LCD_ShowChar                             0x080022bd   Thumb Code   184  lcd_spi2_drv.o(i.LCD_ShowChar)
    LCD_ShowCharStr                          0x08002383   Thumb Code    64  lcd_spi2_drv.o(i.LCD_ShowCharStr)
    LCD_Show_Image                           0x080023c9   Thumb Code   112  lcd_spi2_drv.o(i.LCD_Show_Image)
    LCD_Write_2Byte                          0x0800243d   Thumb Code    36  lcd_spi2_drv.o(i.LCD_Write_2Byte)
    LCD_Write_Cmd                            0x08002465   Thumb Code    22  lcd_spi2_drv.o(i.LCD_Write_Cmd)
    LCD_Write_Data                           0x08002481   Thumb Code    22  lcd_spi2_drv.o(i.LCD_Write_Data)
    MX_GPIO_Init                             0x0800249d   Thumb Code   152  gpio.o(i.MX_GPIO_Init)
    MX_QUADSPI_Init                          0x08002541   Thumb Code    54  quadspi.o(i.MX_QUADSPI_Init)
    MX_SPI2_Init                             0x08002581   Thumb Code    70  spi.o(i.MX_SPI2_Init)
    MX_USART1_UART_Init                      0x080025d1   Thumb Code    52  usart.o(i.MX_USART1_UART_Init)
    MX_USART2_UART_Init                      0x0800260d   Thumb Code    52  usart.o(i.MX_USART2_UART_Init)
    MemManage_Handler                        0x08002649   Thumb Code     2  stm32l4xx_it.o(i.MemManage_Handler)
    Mov_code_W25Q                            0x0800264d   Thumb Code   134  wenzheng_ota.o(i.Mov_code_W25Q)
    MoveCode                                 0x08002721   Thumb Code   118  wenzheng_ota.o(i.MoveCode)
    NMI_Handler                              0x08002845   Thumb Code     2  stm32l4xx_it.o(i.NMI_Handler)
    PendSV_Handler                           0x08002847   Thumb Code     2  stm32l4xx_it.o(i.PendSV_Handler)
    QSPI_Receive                             0x080029a9   Thumb Code    20  w25qxx.o(i.QSPI_Receive)
    QSPI_Send_Command                        0x080029c1   Thumb Code    52  w25qxx.o(i.QSPI_Send_Command)
    QSPI_Transmit                            0x080029f9   Thumb Code    20  w25qxx.o(i.QSPI_Transmit)
    ReadFlash                                0x08002c01   Thumb Code    18  wenzheng_ota.o(i.ReadFlash)
    Read_APP_None                            0x08002c15   Thumb Code    24  wenzheng_ota.o(i.Read_APP_None)
    Read_Start_Mode                          0x08002c31   Thumb Code    24  wenzheng_ota.o(i.Read_Start_Mode)
    SPI2_WriteByte                           0x08002c4d   Thumb Code    14  spi.o(i.SPI2_WriteByte)
    SVC_Handler                              0x08002e31   Thumb Code     2  stm32l4xx_it.o(i.SVC_Handler)
    Start_BootLoader                         0x08002e35   Thumb Code   278  wenzheng_ota.o(i.Start_BootLoader)
    SysTick_Handler                          0x08003115   Thumb Code     4  stm32l4xx_it.o(i.SysTick_Handler)
    SystemClock_Config                       0x08003119   Thumb Code   114  main.o(i.SystemClock_Config)
    SystemInit                               0x0800318d   Thumb Code    56  system_stm32l4xx.o(i.SystemInit)
    UART_AdvFeatureConfig                    0x080031d1   Thumb Code   200  stm32l4xx_hal_uart.o(i.UART_AdvFeatureConfig)
    UART_CheckIdleState                      0x08003299   Thumb Code    88  stm32l4xx_hal_uart.o(i.UART_CheckIdleState)
    UART_SetConfig                           0x080032f1   Thumb Code   484  stm32l4xx_hal_uart.o(i.UART_SetConfig)
    UART_WaitOnFlagUntilTimeout              0x080034f5   Thumb Code   164  stm32l4xx_hal_uart.o(i.UART_WaitOnFlagUntilTimeout)
    UsageFault_Handler                       0x08003599   Thumb Code     2  stm32l4xx_it.o(i.UsageFault_Handler)
    W25QXX_Erase_Sector                      0x0800359b   Thumb Code    42  w25qxx.o(i.W25QXX_Erase_Sector)
    W25QXX_Page_Program                      0x080035c5   Thumb Code    52  w25qxx.o(i.W25QXX_Page_Program)
    W25QXX_Read                              0x080035f9   Thumb Code    50  w25qxx.o(i.W25QXX_Read)
    W25QXX_ReadID                            0x0800362b   Thumb Code    56  w25qxx.o(i.W25QXX_ReadID)
    W25QXX_ReadSR                            0x08003663   Thumb Code    44  w25qxx.o(i.W25QXX_ReadSR)
    W25QXX_Wait_Busy                         0x0800368f   Thumb Code    14  w25qxx.o(i.W25QXX_Wait_Busy)
    W25QXX_Write_Enable                      0x0800369d   Thumb Code    32  w25qxx.o(i.W25QXX_Write_Enable)
    WriteFlash                               0x080036bd   Thumb Code    46  wenzheng_ota.o(i.WriteFlash)
    __0printf$8                              0x080036ed   Thumb Code    22  printf8.o(i.__0printf$8)
    __1printf$8                              0x080036ed   Thumb Code     0  printf8.o(i.__0printf$8)
    __2printf                                0x080036ed   Thumb Code     0  printf8.o(i.__0printf$8)
    __scatterload_copy                       0x0800372d   Thumb Code    14  handlers.o(i.__scatterload_copy)
    __scatterload_null                       0x0800373b   Thumb Code     2  handlers.o(i.__scatterload_null)
    __scatterload_zeroinit                   0x0800373d   Thumb Code    14  handlers.o(i.__scatterload_zeroinit)
    fputc                                    0x08003bb5   Thumb Code    18  usart.o(i.fputc)
    main                                     0x08003bcd   Thumb Code   128  main.o(i.main)
    rollback_APP                             0x08003c8d   Thumb Code    90  wenzheng_ota.o(i.rollback_APP)
    gImage_ota_logo                          0x08003d60   Data       32768  main.o(.constdata)
    AHBPrescTable                            0x0800bd60   Data          16  system_stm32l4xx.o(.constdata)
    MSIRangeTable                            0x0800bd70   Data          48  system_stm32l4xx.o(.constdata)
    APBPrescTable                            0x0800bda0   Data           8  system_stm32l4xx.o(.constdata)
    asc2_1206                                0x0800bda8   Data        1140  lcd_spi2_drv.o(.constdata)
    asc2_2412                                0x0800c21c   Data        4560  lcd_spi2_drv.o(.constdata)
    Region$$Table$$Base                      0x0800d3ec   Number         0  anon$$obj.o(Region$$Table)
    Region$$Table$$Limit                     0x0800d40c   Number         0  anon$$obj.o(Region$$Table)
    uwTickFreq                               0x20000000   Data           1  stm32l4xx_hal.o(.data)
    uwTickPrio                               0x20000004   Data           4  stm32l4xx_hal.o(.data)
    uwTick                                   0x20000008   Data           4  stm32l4xx_hal.o(.data)
    pFlash                                   0x2000000c   Data          32  stm32l4xx_hal_flash.o(.data)
    SystemCoreClock                          0x2000002c   Data           4  system_stm32l4xx.o(.data)
    __stdout                                 0x20000030   Data           4  stdout.o(.data)
    hqspi                                    0x20000034   Data          76  quadspi.o(.bss)
    hspi2                                    0x20000080   Data         100  spi.o(.bss)
    huart1                                   0x200000e4   Data         128  usart.o(.bss)
    huart2                                   0x20000164   Data         128  usart.o(.bss)
    __initial_sp                             0x20000e68   Data           0  startup_stm32l431xx.o(STACK)



==============================================================================

Memory Map of the image

  Image Entry point : 0x0800018d

  Load Region LR_IROM1 (Base: 0x08000000, Size: 0x0000d440, Max: 0x00040000, ABSOLUTE)

    Execution Region ER_IROM1 (Exec base: 0x08000000, Load base: 0x08000000, Size: 0x0000d40c, Max: 0x00040000, ABSOLUTE)

    Exec Addr    Load Addr    Size         Type   Attr      Idx    E Section Name        Object

    0x08000000   0x08000000   0x0000018c   Data   RO            3    RESET               startup_stm32l431xx.o
    0x0800018c   0x0800018c   0x00000000   Code   RO         3877  * .ARM.Collect$$$$00000000  mc_w.l(entry.o)
    0x0800018c   0x0800018c   0x00000004   Code   RO         4151    .ARM.Collect$$$$00000001  mc_w.l(entry2.o)
    0x08000190   0x08000190   0x00000004   Code   RO         4154    .ARM.Collect$$$$00000004  mc_w.l(entry5.o)
    0x08000194   0x08000194   0x00000000   Code   RO         4156    .ARM.Collect$$$$00000008  mc_w.l(entry7b.o)
    0x08000194   0x08000194   0x00000000   Code   RO         4158    .ARM.Collect$$$$0000000A  mc_w.l(entry8b.o)
    0x08000194   0x08000194   0x00000008   Code   RO         4159    .ARM.Collect$$$$0000000B  mc_w.l(entry9a.o)
    0x0800019c   0x0800019c   0x00000000   Code   RO         4161    .ARM.Collect$$$$0000000D  mc_w.l(entry10a.o)
    0x0800019c   0x0800019c   0x00000000   Code   RO         4163    .ARM.Collect$$$$0000000F  mc_w.l(entry11a.o)
    0x0800019c   0x0800019c   0x00000004   Code   RO         4152    .ARM.Collect$$$$00002712  mc_w.l(entry2.o)
    0x080001a0   0x080001a0   0x00000006   Code   RO         3789    .emb_text           wenzheng_ota.o
    0x080001a6   0x080001a6   0x00000002   PAD
    0x080001a8   0x080001a8   0x00000024   Code   RO            4    .text               startup_stm32l431xx.o
    0x080001cc   0x080001cc   0x00000068   Code   RO         3880    .text               mc_w.l(uldiv.o)
    0x08000234   0x08000234   0x00000024   Code   RO         3882    .text               mc_w.l(memseta.o)
    0x08000258   0x08000258   0x0000001e   Code   RO         4168    .text               mc_w.l(llshl.o)
    0x08000276   0x08000276   0x00000020   Code   RO         4170    .text               mc_w.l(llushr.o)
    0x08000296   0x08000296   0x00000002   PAD
    0x08000298   0x08000298   0x00000024   Code   RO         4183    .text               mc_w.l(init.o)
    0x080002bc   0x080002bc   0x00000002   Code   RO          368    i.BusFault_Handler  stm32l4xx_it.o
    0x080002be   0x080002be   0x00000002   Code   RO          369    i.DebugMon_Handler  stm32l4xx_it.o
    0x080002c0   0x080002c0   0x00000050   Code   RO         3675    i.Display_Process_Bar  main_ui.o
    0x08000310   0x08000310   0x00000030   Code   RO         3676    i.Display_Process_Bar_Frame  main_ui.o
    0x08000340   0x08000340   0x000000b0   Code   RO         3790    i.Erase_page        wenzheng_ota.o
    0x080003f0   0x080003f0   0x00000002   Code   RO           13    i.Error_Handler     main.o
    0x080003f2   0x080003f2   0x00000002   PAD
    0x080003f4   0x080003f4   0x00000054   Code   RO         1867    i.FLASH_FlushCaches  stm32l4xx_hal_flash_ex.o
    0x08000448   0x08000448   0x0000001c   Code   RO         1868    i.FLASH_MassErase   stm32l4xx_hal_flash_ex.o
    0x08000464   0x08000464   0x00000028   Code   RO         1871    i.FLASH_PageErase   stm32l4xx_hal_flash_ex.o
    0x0800048c   0x0800048c   0x0000001c   Code   RO         1758    i.FLASH_Program_DoubleWord  stm32l4xx_hal_flash.o
    0x080004a8   0x080004a8   0x0000002c   Code   RO         1759    i.FLASH_Program_Fast  stm32l4xx_hal_flash.o
    0x080004d4   0x080004d4   0x00000064   Code   RO         1760    i.FLASH_WaitForLastOperation  stm32l4xx_hal_flash.o
    0x08000538   0x08000538   0x00000068   Code   RO         3791    i.GetPage           wenzheng_ota.o
    0x080005a0   0x080005a0   0x00000024   Code   RO          736    i.HAL_Delay         stm32l4xx_hal.o
    0x080005c4   0x080005c4   0x000000e6   Code   RO         1872    i.HAL_FLASHEx_Erase  stm32l4xx_hal_flash_ex.o
    0x080006aa   0x080006aa   0x00000002   PAD
    0x080006ac   0x080006ac   0x00000014   Code   RO         1764    i.HAL_FLASH_Lock    stm32l4xx_hal_flash.o
    0x080006c0   0x080006c0   0x000000aa   Code   RO         1769    i.HAL_FLASH_Program  stm32l4xx_hal_flash.o
    0x0800076a   0x0800076a   0x00000002   PAD
    0x0800076c   0x0800076c   0x00000028   Code   RO         1771    i.HAL_FLASH_Unlock  stm32l4xx_hal_flash.o
    0x08000794   0x08000794   0x000001be   Code   RO         1969    i.HAL_GPIO_Init     stm32l4xx_hal_gpio.o
    0x08000952   0x08000952   0x0000000a   Code   RO         1973    i.HAL_GPIO_WritePin  stm32l4xx_hal_gpio.o
    0x0800095c   0x0800095c   0x0000000c   Code   RO          740    i.HAL_GetTick       stm32l4xx_hal.o
    0x08000968   0x08000968   0x00000010   Code   RO          746    i.HAL_IncTick       stm32l4xx_hal.o
    0x08000978   0x08000978   0x0000001e   Code   RO          747    i.HAL_Init          stm32l4xx_hal.o
    0x08000996   0x08000996   0x00000002   PAD
    0x08000998   0x08000998   0x00000044   Code   RO          748    i.HAL_InitTick      stm32l4xx_hal.o
    0x080009dc   0x080009dc   0x0000002c   Code   RO          443    i.HAL_MspInit       stm32l4xx_hal_msp.o
    0x08000a08   0x08000a08   0x00000040   Code   RO         2462    i.HAL_NVIC_SetPriority  stm32l4xx_hal_cortex.o
    0x08000a48   0x08000a48   0x00000024   Code   RO         2463    i.HAL_NVIC_SetPriorityGrouping  stm32l4xx_hal_cortex.o
    0x08000a6c   0x08000a6c   0x00000068   Code   RO         2260    i.HAL_PWREx_ControlVoltageScaling  stm32l4xx_hal_pwr_ex.o
    0x08000ad4   0x08000ad4   0x00000010   Code   RO         2283    i.HAL_PWREx_GetVoltageRange  stm32l4xx_hal_pwr_ex.o
    0x08000ae4   0x08000ae4   0x0000008c   Code   RO          473    i.HAL_QSPI_Command  stm32l4xx_hal_qspi.o
    0x08000b70   0x08000b70   0x000000a8   Code   RO          482    i.HAL_QSPI_Init     stm32l4xx_hal_qspi.o
    0x08000c18   0x08000c18   0x00000068   Code   RO          225    i.HAL_QSPI_MspInit  quadspi.o
    0x08000c80   0x08000c80   0x000000c4   Code   RO          486    i.HAL_QSPI_Receive  stm32l4xx_hal_qspi.o
    0x08000d44   0x08000d44   0x000000bc   Code   RO          496    i.HAL_QSPI_Transmit  stm32l4xx_hal_qspi.o
    0x08000e00   0x08000e00   0x000002ba   Code   RO         1602    i.HAL_RCCEx_PeriphCLKConfig  stm32l4xx_hal_rcc_ex.o
    0x080010ba   0x080010ba   0x00000002   PAD
    0x080010bc   0x080010bc   0x00000120   Code   RO         1480    i.HAL_RCC_ClockConfig  stm32l4xx_hal_rcc.o
    0x080011dc   0x080011dc   0x00000024   Code   RO         1486    i.HAL_RCC_GetPCLK1Freq  stm32l4xx_hal_rcc.o
    0x08001200   0x08001200   0x00000024   Code   RO         1487    i.HAL_RCC_GetPCLK2Freq  stm32l4xx_hal_rcc.o
    0x08001224   0x08001224   0x000000a4   Code   RO         1488    i.HAL_RCC_GetSysClockFreq  stm32l4xx_hal_rcc.o
    0x080012c8   0x080012c8   0x0000056c   Code   RO         1491    i.HAL_RCC_OscConfig  stm32l4xx_hal_rcc.o
    0x08001834   0x08001834   0x000000e0   Code   RO         2669    i.HAL_SPI_Init      stm32l4xx_hal_spi.o
    0x08001914   0x08001914   0x00000080   Code   RO          267    i.HAL_SPI_MspInit   spi.o
    0x08001994   0x08001994   0x0000018e   Code   RO         2677    i.HAL_SPI_Transmit  stm32l4xx_hal_spi.o
    0x08001b22   0x08001b22   0x00000028   Code   RO         2467    i.HAL_SYSTICK_Config  stm32l4xx_hal_cortex.o
    0x08001b4a   0x08001b4a   0x00000066   Code   RO         3073    i.HAL_UART_Init     stm32l4xx_hal_uart.o
    0x08001bb0   0x08001bb0   0x00000090   Code   RO          315    i.HAL_UART_MspInit  usart.o
    0x08001c40   0x08001c40   0x000000b6   Code   RO         3082    i.HAL_UART_Transmit  stm32l4xx_hal_uart.o
    0x08001cf6   0x08001cf6   0x00000002   Code   RO          370    i.HardFault_Handler  stm32l4xx_it.o
    0x08001cf8   0x08001cf8   0x000000d0   Code   RO         3792    i.IAP_ExecuteApp    wenzheng_ota.o
    0x08001dc8   0x08001dc8   0x00000052   Code   RO         3523    i.LCD_Address_Set   lcd_spi2_drv.o
    0x08001e1a   0x08001e1a   0x00000002   PAD
    0x08001e1c   0x08001e1c   0x00000058   Code   RO         3524    i.LCD_Clear         lcd_spi2_drv.o
    0x08001e74   0x08001e74   0x00000010   Code   RO         3526    i.LCD_DisplayOn     lcd_spi2_drv.o
    0x08001e84   0x08001e84   0x00000108   Code   RO         3528    i.LCD_Draw_ColorLine  lcd_spi2_drv.o
    0x08001f8c   0x08001f8c   0x00000016   Code   RO         3529    i.LCD_Draw_ColorPoint  lcd_spi2_drv.o
    0x08001fa2   0x08001fa2   0x00000044   Code   RO         3530    i.LCD_Draw_ColorRect  lcd_spi2_drv.o
    0x08001fe6   0x08001fe6   0x00000002   PAD
    0x08001fe8   0x08001fe8   0x00000080   Code   RO         3532    i.LCD_Fill          lcd_spi2_drv.o
    0x08002068   0x08002068   0x000000c0   Code   RO         3533    i.LCD_GPIO_Init     lcd_spi2_drv.o
    0x08002128   0x08002128   0x00000190   Code   RO         3534    i.LCD_Init          lcd_spi2_drv.o
    0x080022b8   0x080022b8   0x00000004   Code   RO         3536    i.LCD_SPI_Send      lcd_spi2_drv.o
    0x080022bc   0x080022bc   0x000000c6   Code   RO         3537    i.LCD_ShowChar      lcd_spi2_drv.o
    0x08002382   0x08002382   0x00000046   Code   RO         3538    i.LCD_ShowCharStr   lcd_spi2_drv.o
    0x080023c8   0x080023c8   0x00000074   Code   RO         3539    i.LCD_Show_Image    lcd_spi2_drv.o
    0x0800243c   0x0800243c   0x00000028   Code   RO         3540    i.LCD_Write_2Byte   lcd_spi2_drv.o
    0x08002464   0x08002464   0x0000001c   Code   RO         3541    i.LCD_Write_Cmd     lcd_spi2_drv.o
    0x08002480   0x08002480   0x0000001c   Code   RO         3542    i.LCD_Write_Data    lcd_spi2_drv.o
    0x0800249c   0x0800249c   0x000000a4   Code   RO          200    i.MX_GPIO_Init      gpio.o
    0x08002540   0x08002540   0x00000040   Code   RO          226    i.MX_QUADSPI_Init   quadspi.o
    0x08002580   0x08002580   0x00000050   Code   RO          268    i.MX_SPI2_Init      spi.o
    0x080025d0   0x080025d0   0x0000003c   Code   RO          316    i.MX_USART1_UART_Init  usart.o
    0x0800260c   0x0800260c   0x0000003c   Code   RO          317    i.MX_USART2_UART_Init  usart.o
    0x08002648   0x08002648   0x00000002   Code   RO          371    i.MemManage_Handler  stm32l4xx_it.o
    0x0800264a   0x0800264a   0x00000002   PAD
    0x0800264c   0x0800264c   0x000000d4   Code   RO         3793    i.Mov_code_W25Q     wenzheng_ota.o
    0x08002720   0x08002720   0x00000124   Code   RO         3794    i.MoveCode          wenzheng_ota.o
    0x08002844   0x08002844   0x00000002   Code   RO          372    i.NMI_Handler       stm32l4xx_it.o
    0x08002846   0x08002846   0x00000002   Code   RO          373    i.PendSV_Handler    stm32l4xx_it.o
    0x08002848   0x08002848   0x0000015e   Code   RO          501    i.QSPI_Config       stm32l4xx_hal_qspi.o
    0x080029a6   0x080029a6   0x00000002   PAD
    0x080029a8   0x080029a8   0x00000018   Code   RO         3708    i.QSPI_Receive      w25qxx.o
    0x080029c0   0x080029c0   0x00000038   Code   RO         3709    i.QSPI_Send_Command  w25qxx.o
    0x080029f8   0x080029f8   0x00000018   Code   RO         3710    i.QSPI_Transmit     w25qxx.o
    0x08002a10   0x08002a10   0x00000048   Code   RO          508    i.QSPI_WaitFlagStateUntilTimeout  stm32l4xx_hal_qspi.o
    0x08002a58   0x08002a58   0x0000012c   Code   RO         1606    i.RCCEx_PLLSAI1_Config  stm32l4xx_hal_rcc_ex.o
    0x08002b84   0x08002b84   0x0000007c   Code   RO         1492    i.RCC_SetFlashLatencyFromMSIRange  stm32l4xx_hal_rcc.o
    0x08002c00   0x08002c00   0x00000012   Code   RO         3795    i.ReadFlash         wenzheng_ota.o
    0x08002c12   0x08002c12   0x00000002   PAD
    0x08002c14   0x08002c14   0x0000001c   Code   RO         3796    i.Read_APP_None     wenzheng_ota.o
    0x08002c30   0x08002c30   0x0000001c   Code   RO         3797    i.Read_Start_Mode   wenzheng_ota.o
    0x08002c4c   0x08002c4c   0x00000014   Code   RO          269    i.SPI2_WriteByte    spi.o
    0x08002c60   0x08002c60   0x00000048   Code   RO         2707    i.SPI_EndRxTxTransaction  stm32l4xx_hal_spi.o
    0x08002ca8   0x08002ca8   0x000000ce   Code   RO         2712    i.SPI_WaitFifoStateUntilTimeout  stm32l4xx_hal_spi.o
    0x08002d76   0x08002d76   0x00000002   PAD
    0x08002d78   0x08002d78   0x000000b8   Code   RO         2713    i.SPI_WaitFlagStateUntilTimeout  stm32l4xx_hal_spi.o
    0x08002e30   0x08002e30   0x00000002   Code   RO          374    i.SVC_Handler       stm32l4xx_it.o
    0x08002e32   0x08002e32   0x00000002   PAD
    0x08002e34   0x08002e34   0x000002e0   Code   RO         3799    i.Start_BootLoader  wenzheng_ota.o
    0x08003114   0x08003114   0x00000004   Code   RO          375    i.SysTick_Handler   stm32l4xx_it.o
    0x08003118   0x08003118   0x00000072   Code   RO           14    i.SystemClock_Config  main.o
    0x0800318a   0x0800318a   0x00000002   PAD
    0x0800318c   0x0800318c   0x00000044   Code   RO         3486    i.SystemInit        system_stm32l4xx.o
    0x080031d0   0x080031d0   0x000000c8   Code   RO         3087    i.UART_AdvFeatureConfig  stm32l4xx_hal_uart.o
    0x08003298   0x08003298   0x00000058   Code   RO         3088    i.UART_CheckIdleState  stm32l4xx_hal_uart.o
    0x080032f0   0x080032f0   0x00000204   Code   RO         3103    i.UART_SetConfig    stm32l4xx_hal_uart.o
    0x080034f4   0x080034f4   0x000000a4   Code   RO         3106    i.UART_WaitOnFlagUntilTimeout  stm32l4xx_hal_uart.o
    0x08003598   0x08003598   0x00000002   Code   RO          376    i.UsageFault_Handler  stm32l4xx_it.o
    0x0800359a   0x0800359a   0x0000002a   Code   RO         3711    i.W25QXX_Erase_Sector  w25qxx.o
    0x080035c4   0x080035c4   0x00000034   Code   RO         3712    i.W25QXX_Page_Program  w25qxx.o
    0x080035f8   0x080035f8   0x00000032   Code   RO         3713    i.W25QXX_Read       w25qxx.o
    0x0800362a   0x0800362a   0x00000038   Code   RO         3714    i.W25QXX_ReadID     w25qxx.o
    0x08003662   0x08003662   0x0000002c   Code   RO         3715    i.W25QXX_ReadSR     w25qxx.o
    0x0800368e   0x0800368e   0x0000000e   Code   RO         3716    i.W25QXX_Wait_Busy  w25qxx.o
    0x0800369c   0x0800369c   0x00000020   Code   RO         3718    i.W25QXX_Write_Enable  w25qxx.o
    0x080036bc   0x080036bc   0x0000002e   Code   RO         3800    i.WriteFlash        wenzheng_ota.o
    0x080036ea   0x080036ea   0x00000002   PAD
    0x080036ec   0x080036ec   0x00000020   Code   RO         4091    i.__0printf$8       mc_w.l(printf8.o)
    0x0800370c   0x0800370c   0x00000020   Code   RO         2469    i.__NVIC_SetPriority  stm32l4xx_hal_cortex.o
    0x0800372c   0x0800372c   0x0000000e   Code   RO         4189    i.__scatterload_copy  mc_w.l(handlers.o)
    0x0800373a   0x0800373a   0x00000002   Code   RO         4190    i.__scatterload_null  mc_w.l(handlers.o)
    0x0800373c   0x0800373c   0x0000000e   Code   RO         4191    i.__scatterload_zeroinit  mc_w.l(handlers.o)
    0x0800374a   0x0800374a   0x00000002   PAD
    0x0800374c   0x0800374c   0x00000416   Code   RO         4098    i._printf_core      mc_w.l(printf8.o)
    0x08003b62   0x08003b62   0x00000024   Code   RO         4099    i._printf_post_padding  mc_w.l(printf8.o)
    0x08003b86   0x08003b86   0x0000002e   Code   RO         4100    i._printf_pre_padding  mc_w.l(printf8.o)
    0x08003bb4   0x08003bb4   0x00000018   Code   RO          318    i.fputc             usart.o
    0x08003bcc   0x08003bcc   0x000000c0   Code   RO           15    i.main              main.o
    0x08003c8c   0x08003c8c   0x000000d4   Code   RO         3801    i.rollback_APP      wenzheng_ota.o
    0x08003d60   0x08003d60   0x00008000   Data   RO           16    .constdata          main.o
    0x0800bd60   0x0800bd60   0x00000040   Data   RO         3487    .constdata          system_stm32l4xx.o
    0x0800bda0   0x0800bda0   0x00000008   Data   RO         3488    .constdata          system_stm32l4xx.o
    0x0800bda8   0x0800bda8   0x00001644   Data   RO         3544    .constdata          lcd_spi2_drv.o
    0x0800d3ec   0x0800d3ec   0x00000020   Data   RO         4187    Region$$Table       anon$$obj.o


    Execution Region RW_IRAM1 (Exec base: 0x20000000, Load base: 0x0800d40c, Size: 0x00000e68, Max: 0x00010000, ABSOLUTE)

    Exec Addr    Load Addr    Size         Type   Attr      Idx    E Section Name        Object

    0x20000000   0x0800d40c   0x0000000c   Data   RW          764    .data               stm32l4xx_hal.o
    0x2000000c   0x0800d418   0x00000020   Data   RW         1772    .data               stm32l4xx_hal_flash.o
    0x2000002c   0x0800d438   0x00000004   Data   RW         3489    .data               system_stm32l4xx.o
    0x20000030   0x0800d43c   0x00000004   Data   RW         4165    .data               mc_w.l(stdout.o)
    0x20000034        -       0x0000004c   Zero   RW          227    .bss                quadspi.o
    0x20000080        -       0x00000064   Zero   RW          270    .bss                spi.o
    0x200000e4        -       0x00000100   Zero   RW          319    .bss                usart.o
    0x200001e4        -       0x00000480   Zero   RW         3543    .bss                lcd_spi2_drv.o
    0x20000664   0x0800d440   0x00000004   PAD
    0x20000668        -       0x00000800   Zero   RW            1    STACK               startup_stm32l431xx.o


==============================================================================

Image component sizes


      Code (inc. data)   RO Data    RW Data    ZI Data      Debug   Object Name

       164         12          0          0          0       1039   gpio.o
      1744         76       5700          0       1152      14589   lcd_spi2_drv.o
       308         64      32768          0          0     669571   main.o
       128         14          0          0          0       1326   main_ui.o
       168         24          0          0         76       1841   quadspi.o
       228         32          0          0        100       2422   spi.o
        36          8        396          0       2048        864   startup_stm32l431xx.o
       162         24          0         12          0      12869   stm32l4xx_hal.o
       172         14          0          0          0      33290   stm32l4xx_hal_cortex.o
       402         52          0         32          0      22918   stm32l4xx_hal_flash.o
       382         26          0          0          0       4074   stm32l4xx_hal_flash_ex.o
       456         28          0          0          0       2552   stm32l4xx_hal_gpio.o
        44          6          0          0          0        910   stm32l4xx_hal_msp.o
       120         20          0          0          0       1426   stm32l4xx_hal_pwr_ex.o
      1114         10          0          0          0       7164   stm32l4xx_hal_qspi.o
      2036         98          0          0          0       7192   stm32l4xx_hal_rcc.o
       998         32          0          0          0       3016   stm32l4xx_hal_rcc_ex.o
      1084          8          0          0          0       5966   stm32l4xx_hal_spi.o
      1252         52          0          0          0       6577   stm32l4xx_hal_uart.o
        20          0          0          0          0       4430   stm32l4xx_it.o
        68         12         72          4          0       1321   system_stm32l4xx.o
       288         34          0          0        256       3083   usart.o
       394         12          0          0          0       6484   w25qxx.o
      2066       1036          0          0          0       9246   wenzheng_ota.o

    ----------------------------------------------------------------------
     13864       1694      38968         48       3636     824170   Object Totals
         0          0         32          0          0          0   (incl. Generated)
        30          0          0          0          4          0   (incl. Padding)

    ----------------------------------------------------------------------

      Code (inc. data)   RO Data    RW Data    ZI Data      Debug   Library Member Name

         0          0          0          0          0          0   entry.o
         0          0          0          0          0          0   entry10a.o
         0          0          0          0          0          0   entry11a.o
         8          4          0          0          0          0   entry2.o
         4          0          0          0          0          0   entry5.o
         0          0          0          0          0          0   entry7b.o
         0          0          0          0          0          0   entry8b.o
         8          4          0          0          0          0   entry9a.o
        30          0          0          0          0          0   handlers.o
        36          8          0          0          0         68   init.o
        30          0          0          0          0         68   llshl.o
        32          0          0          0          0         68   llushr.o
        36          0          0          0          0        108   memseta.o
      1160         54          0          0          0        352   printf8.o
         0          0          0          4          0          0   stdout.o
       104          0          0          0          0         92   uldiv.o

    ----------------------------------------------------------------------
      1452         70          0          4          0        756   Library Totals
         4          0          0          0          0          0   (incl. Padding)

    ----------------------------------------------------------------------

      Code (inc. data)   RO Data    RW Data    ZI Data      Debug   Library Name

      1448         70          0          4          0        756   mc_w.l

    ----------------------------------------------------------------------
      1452         70          0          4          0        756   Library Totals

    ----------------------------------------------------------------------

==============================================================================


      Code (inc. data)   RO Data    RW Data    ZI Data      Debug   

     15316       1764      38968         52       3636     814418   Grand Totals
     15316       1764      38968         52       3636     814418   ELF Image Totals
     15316       1764      38968         52          0          0   ROM Totals

==============================================================================

    Total RO  Size (Code + RO Data)                54284 (  53.01kB)
    Total RW  Size (RW Data + ZI Data)              3688 (   3.60kB)
    Total ROM Size (Code + RO Data + RW Data)      54336 (  53.06kB)

==============================================================================

